:020000040800F2
:1000000000060020A10200084D100008051000089D
:100010002D1000080510000825100008A302000894
:10002000A3020008A3020008A30200083D2900085B
:10003000A3020008A3020008A3020008A30200080C
:10004000A3020008A3020008A3020008A3020008FC
:10005000A3020008A3020008BD3D0008E93D000816
:10006000153E0008413E00086D3E0008A30200084E
:10007000A3020008A3020008A3020008A3020008CC
:10008000A3020008A3020008A3020008A3020008BC
:10009000A3020008A3020008A3020008993E00087A
:1000A000A3020008A3020008A3020008A30200089C
:1000B000853F0008A3020008A3020008A30200086D
:1000C000A3020008A3020008A3020008A30200087C
:1000D000A3020008A3020008A3020008A30200086C
:1000E000FD3E0008A3020008A3020008A3020008C6
:1000F000A3020008A3020008A3020008A30200084C
:10010000A3020008A3020008A3020008A30200083B
:10011000A3020008A3020008A3020008A30200082B
:10012000A3020008A3020008A3020008A30200081B
:10013000A3020008A3020008A3020008A30200080B
:10014000A3020008A3020008A3020008A3020008FB
:10015000A3020008A3020008A3020008A3020008EB
:10016000A3020008A3020008A3020008A3020008DB
:10017000A3020008A9340008A3020008A302000893
:10018000A3020008A3020008713F0008A3020008B0
:10019000A3020008A3020008A3020008A3020008AB
:1001A000A3020008A3020008A3020008A30200089B
:1001B000A3020008A3020008A3020008A30200088B
:1001C000A3020008A3020008A3020008A30200087B
:1001D000A302000895340008A3020008A302000847
:1001E000A3020008A3020008A3020008A30200085B
:1001F000A3020008A3020008A3020008A30200084B
:10020000A3020008A3020008A3020008A30200083A
:10021000A3020008A3020008A3020008A30200082A
:10022000A3020008A3020008A3020008A30200081A
:10023000A3020008A3020008A3020008A30200080A
:10024000A3020008A3020008A3020008A3020008FA
:10025000A3020008A3020008A3020008A3020008EA
:10026000A3020008A3020008A3020008A3020008DA
:10027000A3020008A3020008A3020008A3020008CA
:10028000A3020008A3020008A3020008A3020008BA
:10029000A3020008A3020008A3020008A3020008AA
:1002A00002E000F000F8FEE772B63A4880F30888F2
:1002B000394880F3098839484EF60851CEF20001DA
:1002C000086040F20000CCF200004EF63471CEF22D
:1002D00000010860BFF34F8FBFF36F8F40F2000043
:1002E000C0F2F0004EF68851CEF200010860BFF374
:1002F0004F8FBFF36F8F4FF00000E1EE100A4EF604
:100300003C71CEF200010860062080F31488BFF330
:100310006F8F02F0D1FB02F073FB03F007FB4FF08D
:1003200055301F491B4A91423CBF41F8040BFAE784
:100330001C49194A91423CBF41F8040BFAE71A499B
:100340001A4A1B4B9A423EBF51F8040B42F8040B69
:10035000F8E700201749184A91423CBF41F8040BC6
:10036000FAE702F08BFB03F065FB144C144DAC4232
:1003700003DA54F8041B8847F9E700F041F8114C00
:10038000114DAC4203DA54F8041B8847F9E702F038
:1003900073BB0000000600200022002000000008BF
:1003A0000000002000060020A843000800220020D2
:1003B000642200206822002004470020A0020008D8
:1003C000A0020008A0020008A00200082DE9F04FDA
:1003D0002DED108AC1F80CD0D0F80CD0BDEC108AED
:1003E000BDE8F08F002383F311882846A047002042
:1003F00001F08AFEFEE701F005FE00DFFEE70000E7
:1004000038B502F05BFA054602F08EFA0446D0B920
:100410000F4B9D4219D001339D4241F2883512BFE6
:10042000044600250124002002F052FA0CB100F02D
:1004300077F800F083FD00F029FC284600F01EF953
:1004400000F06EF8F9E70025EDE70546EBE700BFA1
:10045000010007B008B500F0E5FBA0F12003584209
:10046000584108BD07B541F21203022101A8ADF8B9
:10047000043000F0F5FB03B05DF804FB38B5202331
:1004800083F311881748C3680BB101F0C3FE002342
:10049000154A4FF47A71134801F080FE002383F36C
:1004A0001188124C236813B12368013B23606368F1
:1004B00013B16368013B63600D4D2B7833B96368FA
:1004C0007BB9022000F0ACFC322363602B78032B55
:1004D00007D163682BB9022000F0A2FC4FF47A73B5
:1004E000636038BD682200207D040008842300205A
:1004F0007C220020084B187003280CD8DFE800F09D
:1005000008050208022000F07DBC022000F06ABC51
:10051000024B00225A6070477C2200208423002076
:10052000F8B5504B504A1C461968013100F09980CB
:1005300004339342F8D162684C4B9A4240F2918066
:100540004B4B9B6803F1006303F500339A4280F044
:100550008880002000F0B4FB0220FFF7CBFF454B62
:100560000021D3F8E820C3F8E810D3F81021C3F82D
:100570001011D3F81021D3F8EC20C3F8EC10D3F805
:100580001421C3F81411D3F81421D3F8F020C3F8C0
:10059000F010D3F81821C3F81811D3F81821D3F8A4
:1005A000802042F00062C3F88020D3F8802022F03F
:1005B0000062C3F88020D3F88020D3F8802042F076
:1005C0000072C3F88020D3F8802022F00072C3F8B4
:1005D0008020D3F8803072B64FF0E023C3F8084D86
:1005E000D4E90004BFF34F8FBFF36F8F224AC2F8E4
:1005F0008410BFF34F8F536923F480335361BFF3EB
:100600004F8FD2F8803043F6E076C3F3C905C3F3C9
:100610004E335B0103EA060C29464CEA8177013927
:10062000C2F87472F9D2203B13F1200FF2D1BFF35C
:100630004F8FBFF36F8FBFF34F8FBFF36F8F536930
:1006400023F4003353610023C2F85032BFF34F8FBD
:10065000BFF36F8F202383F31188854680F30888CA
:100660002047F8BD0000020820000208FFFF010833
:10067000002200200044025800ED00E02DE9F04F78
:1006800093B0B44B2022FF2100900AA89D6800F08F
:10069000FFFBB14A1378A3B90121B0481170C360C0
:1006A000202383F31188C3680BB101F0B3FD00234D
:1006B000AB4A4FF47A71A94801F070FD002383F32F
:1006C0001188009B13B1A74B009A1A60A64A1378B1
:1006D000032B03D000231370A24A53604FF0000A8B
:1006E000009CD3465646D146012000F08BFB24B136
:1006F0009C4B1B68002B00F02682002000F092FA31
:100700000390039B002BF2DB012000F06BFB039BAB
:10071000213B1F2BE8D801A252F823F09D070008C7
:10072000C507000859080008E9060008E90600089E
:10073000E9060008EB080008BB0A0008D509000814
:10074000370A00085F0A0008850A0008E906000861
:10075000970A0008E9060008090B00083D08000890
:10076000E90600084D0B0008A90700083D0800082D
:10077000E9060008370A0008E9060008E90600084B
:10078000E9060008E9060008E9060008E90600088D
:10079000E9060008E9060008590800080220FFF7EA
:1007A00059FE002840F0F981009B022105A8BAF10A
:1007B000000F08BF1C4641F21233ADF8143000F0B0
:1007C0004FFA91E74FF47A7000F02CFA071EEBDB3A
:1007D0000220FFF73FFE0028E6D0013F052F00F280
:1007E000DE81DFE807F0030A0D101336052304212C
:1007F00005A8059300F034FA17E004215548F9E7FD
:1008000004215A48F6E704215948F3E74FF01C0841
:10081000404608F1040800F055FA0421059005A8A7
:1008200000F01EFAB8F12C0FF2D101204FF00009B0
:1008300000FA07F747EA0B0B5FFA8BFB00F074FB3B
:1008400026B10BF00B030B2B08BF0024FFF70AFEA9
:100850004AE704214748CDE7002EA5D00BF00B0353
:100860000B2BA1D10220FFF7F5FD074600289BD0F6
:100870000120002600F024FA0220FFF73BFE5FFA79
:1008800086F8404600F02CFA0446B0B10399404681
:100890000136A1F140025142514100F031FA0028E5
:1008A000EDD1BA46044641F21213022105A83E4694
:1008B000ADF8143000F0D4F916E725460120FFF713
:1008C00019FE244B9B68AB4207D9284600F0FAF981
:1008D000013040F067810435F3E70025224BBA462A
:1008E0003E461D701F4B5D60A8E7002E3FF45CAFD5
:1008F0000BF00B030B2B7FF457AF0220FFF7FAFD31
:10090000322000F08FF9B0F10008FFF64DAF18F07B
:1009100003077FF449AF0F4A08EB0503926893423F
:100920003FF642AFB8F5807F3FF73EAF124BB84578
:10093000019323DD4FF47A7000F074F90390039A69
:10094000002AFFF631AF039A0137019B03F8012B10
:10095000EDE700BF00220020802300206822002055
:100960007D040008842300207C2200200422002033
:10097000082200200C22002080220020C820FFF73F
:1009800069FD074600283FF40FAF1F2D11D8C5F1B0
:1009900020020AAB25F0030084494245184428BFD1
:1009A0004246019200F04EFA019AFF217F4800F082
:1009B0006FFA4FEAA803C8F387027C4928460193DF
:1009C00000F06EFA064600283FF46DAF019B05EB80
:1009D000830533E70220FFF73DFD00283FF4E4AE36
:1009E00000F0ACF900283FF4DFAE0027B846704BAA
:1009F0009B68BB4218D91F2F11D80A9B01330ED018
:100A000027F0030312AA134453F8203C05934046F1
:100A1000042205A9043700F01BFB8046E7E73846AF
:100A200000F050F90590F2E7CDF81480042105A8F4
:100A300000F016F902E70023642104A8049300F0F3
:100A400005F900287FF4B0AE0220FFF703FD00286F
:100A50003FF4AAAE049800F067F90590E6E700239A
:100A6000642104A8049300F0F1F800287FF49CAE00
:100A70000220FFF7EFFC00283FF496AE049800F048
:100A800055F9EAE70220FFF7E5FC00283FF48CAEB9
:100A900000F064F9E1E70220FFF7DCFC00283FF4F6
:100AA00083AE05A9142000F05FF9074604210490E5
:100AB00004A800F0D5F83946B9E7322000F0B2F8C2
:100AC000071EFFF671AEBB077FF46EAE384A07EB28
:100AD0000903926893423FF667AE0220FFF7BAFC23
:100AE00000283FF461AE27F003074F44B9453FF4B7
:100AF000A5AE484609F1040900F0E4F80421059088
:100B000005A800F0ADF8F1E74FF47A70FFF7A2FC0A
:100B100000283FF449AE00F011F9002844D00A9BA8
:100B200001330BD008220AA9002000F0B9F90028EF
:100B30003AD02022FF210AA800F0AAF9FFF792FC80
:100B40001C4801F0E7FA13B0BDE8F08F002E3FF427
:100B50002BAE0BF00B030B2B7FF426AE002364218E
:100B600005A8059300F072F8074600287FF41CAE34
:100B70000220FFF76FFC804600283FF415AEFFF718
:100B800071FC41F2883001F0C5FA059800F018FABE
:100B900046463C4600F0C8F9A6E506464EE64FF04C
:100BA000000901E6BA467EE637467CE68022002050
:100BB00000220020A08601002DE9F84F4FF47A733F
:100BC00006460D46002402FB03F7DFF85080DFF8ED
:100BD000509098F900305FFA84FA5A1C01D0A34271
:100BE00012D159F824002A4631460368D3F820B0C0
:100BF0003B46D847854207D1074B012083F800A028
:100C0000BDE8F88F0124E4E7002CFBD04FF4FA7024
:100C100001F080FA0020F3E7D0230020102200200A
:100C200014220020002307B5024601210DF1070020
:100C30008DF80730FFF7C0FF20B19DF8070003B023
:100C40005DF804FB4FF0FF30F9E700000A4604218D
:100C500008B5FFF7B1FF80F00100C0B2404208BD07
:100C6000074B0A4630B41978064B53F82140014629
:100C700023682046DD69044BAC4630BC604700BFAA
:100C8000D023002014220020A086010070B50A4E57
:100C900000240A4D01F0EAFC308028683388834242
:100CA00008D901F0DFFC2B6804440133B4F5003FA0
:100CB0002B60F2D370BD00BFD22300208C23002014
:100CC00001F0B2BD00F1006000F50030006870472F
:100CD00000F10060920000F5003001F029BD000035
:100CE000054B1A68054B1B889B1A834202D9104496
:100CF00001F0B8BC002070478C230020D2230020D4
:100D000038B50446074D29B128682044BDE838406D
:100D100001F0C0BC2868204401F0AAFC0028F3D0F0
:100D200038BD00BF8C2300200020704700F1FF5029
:100D300000F58F10D0F8000870470000064991F8C0
:100D4000243033B100230822086A81F82430FFF7E9
:100D5000BFBF0120704700BF90230020014B1868DF
:100D6000704700BF0010005C1B4B0246F0B51868CE
:100D70001A4BC0F30B06000C1F885C68BE4293F947
:100D8000085003D09F89BE4203D10C335C6893F9AD
:100D900008500426124B1F880433874208BF13F9FA
:100DA000025C013EF7D1013A013C0B460A449342F2
:100DB00007D214F9016F581C2EB1034600F8016CDC
:100DC000F5E7184605E02C2482421C7001D9981CD6
:100DD0005D70401AF0BD00BF0010005C1C220020B6
:100DE00078400008022804D1054B4FF480029A6134
:100DF00070470128FCD1024B4FF40012F7E700BF07
:100E000000200258022803D1044B40229A61704707
:100E10000128FCD1014B2022F8E700BF0020025836
:100E2000022805D1064A536983F040035361704795
:100E30000128FCD1024A536983F02003F6E700BF82
:100E400000200258002310B5934203D0CC5CC45458
:100E50000133F9E710BD0000013810B510F9013F6A
:100E60003BB191F900409C4203D11AB10131013AE2
:100E7000F4E71AB191F90020981A10BD1046FCE76A
:100E800003460246D01A12F9011B0029FAD1704715
:100E900002440346934202D003F8011BFAE770476D
:100EA0002DE9F8431F4D14460746884695F824203F
:100EB00052BBDFF870909CB395F824302BB92022F8
:100EC000FF2148462F62FFF7E3FF95F824004146D3
:100ED000C0F1080205EB8000A24228BF2246D6B22C
:100EE0009200FFF7AFFF95F82430A41B17441E446F
:100EF0009044E4B2F6B2082E85F82460DBD1FFF707
:100F00001DFF0028D7D108E02B6A03EB8203834240
:100F1000CFD0FFF713FF0028CBD10020BDE8F88326
:100F20000120FBE790230020024B1A78024B1A7035
:100F3000704700BFD02300201022002038B51A4C83
:100F40001A4D204600F0E8FB2946204600F010FC30
:100F50002D681748D5F89020D2F8043843F00203E2
:100F6000C2F8043801F0D6F82846124900F00EFD08
:100F7000D5F89020104DD2F80438286823F00203E9
:100F80000E49A042C2F804384FF4E1330B6001D09F
:100F900000F020FB6868A04204D00849BDE8384052
:100FA00000F018BB38BD00BFF82900208C410008B4
:100FB00040420F009441000814220020B823002072
:100FC0000C4B70B50C4D04461E780C4B55F8262082
:100FD0009A420DD00A4B002118221846FFF758FFFD
:100FE0000460014655F82600BDE8704000F0F2BAF2
:100FF00070BD00BFD023002014220020F82900205B
:10100000B823002000B59BB0EFF309816822684641
:10101000FFF718FFEFF30583014B9B6BFEE700BF63
:1010200000ED00E008B5FFF7EDFF000000B59BB054
:10103000EFF3098168226846FFF704FFEFF30583A9
:10104000014B5B6BFEE700BF00ED00E0FEE7000038
:1010500030B50A44084D91420DD011F8013B58407B
:10106000082340F30004013B2C4013F0FF0384EA03
:101070005000F6D1EFE730BD2083B8ED0268436839
:101080001143016003B1184770470000024A13681A
:1010900043F0C003136070470078004013B50E4C56
:1010A000204600F08BFA04F1140000234FF4007284
:1010B0000A49009400F04CF9094B4FF400720949B9
:1010C00004F13800009400F0C5F9074A074BC4E961
:1010D000172302B010BD00BFD423002040240020FD
:1010E0008D100008402600200078004000E1F50542
:1010F000037C30B5244C002918BF0C46012B11D1BC
:10110000224B98420ED1224BD3F8E82042F0804285
:10111000C3F8E820D3F8102142F08042C3F8102130
:10112000D3F810312268036EC16D03EB520384665D
:10113000B3FBF2F36268150442BF23F0070503F026
:10114000070343EA4503CB60A36843F040034B60C9
:10115000E36843F001038B6042F4967343F00103AC
:101160000B604FF0FF330B62510505D512F01022D2
:1011700005D0B2F1805F04D080F8643030BD7F23A9
:10118000FAE73F23F8E700BF88400008D423002097
:10119000004402582DE9F047C66D05463768F469EA
:1011A0002107346219D014F0080118BF8021E2072A
:1011B00048BF41F02001A3074FF0200348BF41F092
:1011C0004001600748BF41F4807183F31188281DF6
:1011D000FFF754FF002383F31188E2050AD520238B
:1011E00083F311884FF40071281DFFF747FF002398
:1011F00083F311884FF020094FF0000A14F0200803
:1012000038D13B0616D54FF0200905F1380A2006E3
:1012100010D589F31188504600F050F9002836DACD
:101220000821281DFFF72AFF27F0800333600023E1
:1012300083F31188790614D5620612D5202383F32F
:101240001188D5E913239A4208D12B6C33B127F0CA
:1012500040071021281DFFF711FF3760002383F39B
:101260001188E30618D5AA6E1369ABB15069BDE8C1
:10127000F047184789F31188736A284695F8641077
:10128000194000F0B5F98AF31188F469B6E7B06245
:1012900088F31188F469BAE7BDE8F087F8B5154618
:1012A000826804460B46AA4200D28568A169266975
:1012B000761AB5420BD218462A46FFF7C3FDA3693A
:1012C0002B44A3612846A3685B1BA360F8BD0CD91F
:1012D000AF1B18463246FFF7B5FD3A46E168304489
:1012E000FFF7B0FDE3683B44EBE718462A46FFF7FB
:1012F000A9FDE368E5E7000083689342F7B504467B
:10130000154600D28568D4E90460361AB5420BD27E
:101310002A46FFF797FD63692B4463612846A3685B
:101320005B1BA36003B0F0BD0DD93246AF1B01912A
:10133000FFF788FD01993A46E0683144FFF782FDE6
:10134000E3683B44E9E72A46FFF77CFDE368E4E70E
:1013500010B50A440024C361029B8460C16002612D
:101360000362C0E90000C0E9051110BD08B5D0E96D
:101370000532934201D1826882B98268013282606B
:101380005A1C426119700021D0E904329A4224BFEC
:10139000C368436100F0DAFE002008BD4FF0FF3063
:1013A000FBE7000070B5202304460E4683F3118846
:1013B000A568A5B1A368A269013BA360531CA36102
:1013C00015782269934224BFE368A361E3690BB1F6
:1013D00020469847002383F31188284607E03146CA
:1013E000204600F0A3FE0028E2DA85F3118870BDE4
:1013F0002DE9F74F04460E4617469846D0F81C9044
:101400004FF0200A8AF311884FF0000B154665B1A2
:101410002A4631462046FFF741FF034660B9414660
:10142000204600F083FE0028F1D0002383F31188CA
:10143000781B03B0BDE8F08FB9F1000F03D0019025
:101440002046C847019B8BF31188ED1A1E448AF38E
:101450001188DCE7C160C361009B82600362C0E960
:1014600005111144C0E9000001617047F8B5044658
:101470000D461646202383F31188A768A7B1A368F9
:10148000013BA36063695A1C62611D70D4E9043298
:101490009A4224BFE3686361E3690BB12046984731
:1014A000002080F3118807E03146204600F03EFE20
:1014B0000028E2DA87F31188F8BD0000D0E905239F
:1014C00010B59A4201D182687AB98268002101324E
:1014D00082605A1C82611C7803699A4224BFC368E7
:1014E000836100F033FE204610BD4FF0FF30FBE774
:1014F0002DE9F74F04460E4617469846D0F81C9043
:101500004FF0200A8AF311884FF0000B154665B1A1
:101510002A4631462046FFF7EFFE034660B94146B2
:10152000204600F003FE0028F1D0002383F3118849
:10153000781B03B0BDE8F08FB9F1000F03D0019024
:101540002046C847019B8BF31188ED1A1E448AF38D
:101550001188DCE7026843681143016003B1184752
:10156000704700001430FFF743BF00004FF0FF3317
:101570001430FFF73DBF00003830FFF7B9BF00005F
:101580004FF0FF333830FFF7B3BF00001430FFF7E0
:1015900009BF00004FF0FF311430FFF703BF000018
:1015A0003830FFF763BF00004FF0FF323830FFF7ED
:1015B0005DBF000000207047FFF770BD044B036063
:1015C00000234360C0E9023301230374704700BF66
:1015D000A040000810B52023044683F31188FFF7CC
:1015E00087FD02232374002383F3118810BD0000BC
:1015F00038B5C36904460D461BB904210844FFF7FA
:10160000A9FF294604F11400FFF7B0FE002806DA0E
:10161000201D4FF48061BDE83840FFF79BBF38BD07
:10162000026843681143016003B118477047000026
:1016300013B5406B00F58054D4F8A4381A681178BB
:10164000042914D1017C022911D1197901231289AD
:101650008B4013420BD101A94C3002F06DF8D4F845
:10166000A4480246019B2179206800F0DFF902B00E
:1016700010BD0000143001F0EFBF00004FF0FF3349
:10168000143001F0E9BF00004C3002F0C1B8000096
:101690004FF0FF334C3002F0BBB80000143001F0C3
:1016A000BDBF00004FF0FF31143001F0B7BF0000A4
:1016B0004C3002F08DB800004FF0FF324C3002F099
:1016C00087B800000020704710B500F58054D4F8AA
:1016D000A4381A681178042917D1017C022914D181
:1016E0005979012352898B4013420ED1143001F0F5
:1016F0004FFF024648B1D4F8A4484FF440736179D3
:101700002068BDE8104000F07FB910BD406BFFF7C6
:10171000DBBF0000704700007FB5124B0125042697
:10172000044603600023057400F1840243602946E7
:10173000C0E902330C4B0290143001934FF4407314
:10174000009601F001FF094B04F69442294604F18A
:101750004C000294CDE900634FF4407301F0C8FFE0
:1017600004B070BDC84000080D170008311600080D
:101770000A68202383F311880B790B3342F8230086
:101780004B79133342F823008B7913B10B3342F8B2
:10179000230000F58053C3F8A41802230374002328
:1017A00083F311887047000038B5037F044613B1F6
:1017B00090F85430ABB90125201D0221FFF730FF0E
:1017C00004F114006FF00101257700F0CBFC04F167
:1017D0004C0084F854506FF00101BDE8384000F02F
:1017E000C1BC38BD10B5012104460430FFF718FF15
:1017F0000023237784F8543010BD000038B5044628
:101800000025143001F0B8FE04F14C00257701F0FA
:1018100087FF201D84F854500121FFF701FF204667
:10182000BDE83840FFF750BF90F8803003F0600308
:10183000202B06D190F881200023212A03D81F2ACB
:1018400006D800207047222AFBD1C0E91D3303E0EF
:10185000034A426707228267C3670120704700BFBF
:101860003422002037B500F58055D5F8A4381A6821
:10187000117804291AD1017C022917D11979012381
:1018800012898B40134211D100F14C04204602F022
:1018900007F858B101A9204601F04EFFD5F8A44839
:1018A0000246019B2179206800F0C0F803B030BDEA
:1018B00001F10B03F0B550F8236085B004460D46E6
:1018C000FEB1202383F3118804EB8507301D082126
:1018D000FFF7A6FEFB6806F14C005B691B681BB1B5
:1018E000019001F037FF019803A901F025FF02469E
:1018F00048B1039B2946204600F098F8002383F363
:10190000118805B0F0BDFB685A691268002AF5D04D
:101910001B8A013B1340F1D104F18002EAE7000089
:10192000133138B550F82140ECB1202383F31188EE
:1019300004F58053D3F8A4281368527903EB82038B
:10194000DB689B695D6845B104216018FFF768FE9C
:10195000294604F1140001F025FE2046FFF7B4FEED
:10196000002383F3118838BD7047000001F018B9D7
:1019700001234022002110B5044600F8303BFFF758
:1019800087FA0023C4E9013310BD000010B52023FD
:10199000044683F311882422416000210C30FFF7B4
:1019A00077FA204601F01EF902232370002383F307
:1019B000118810BD70B500EB8103054650690E46D5
:1019C0001446DA6018B110220021FFF761FAA0690D
:1019D00018B110220021FFF75BFA31462846BDE816
:1019E000704001F011BA000083682022002103F04A
:1019F000011310B5044683601030FFF749FA204602
:101A0000BDE8104001F08CBAF0B4012500EB810470
:101A100047898D40E4683D43A469458123600023E4
:101A2000A2606360F0BC01F0A9BA0000F0B4012527
:101A300000EB810407898D40E4683D4364690581BA
:101A400023600023A2606360F0BC01F01FBB0000B4
:101A500070B5022300250446242203702946C0F8ED
:101A600088500C3040F8045CFFF712FA204684F8E6
:101A7000705001F05DF963681B6823B12946204668
:101A8000BDE87040184770BD037880F88C3005239E
:101A9000037043681B6810B504460BB104219847D6
:101AA0000023A36010BD000090F88C2043680270F2
:101AB0001B680BB1052118477047000070B590F8FE
:101AC0007030044613B1002380F8703004F18002B6
:101AD000204601F049FA63689B68B3B994F88030F6
:101AE00013F0600535D00021204601F0F3FC002101
:101AF000204601F0E3FC63681B6813B10621204611
:101B00009847062384F8703070BD20469847002817
:101B1000E4D0B4F88630A26F9A4288BFA36794F9E4
:101B20008030A56F002B4FF0200380F20381002D41
:101B300000F0F280092284F8702083F311880021DC
:101B40002046D4E91D23FFF771FF002383F311889A
:101B5000DAE794F8812003F07F0343EA022340F29E
:101B60000232934200F0C58021D8B3F5807F48D07F
:101B70000DD8012B3FD0022B00F09380002BB2D167
:101B800004F1880262670222A267E367C1E7B3F546
:101B9000817F00F09B80B3F5407FA4D194F8823020
:101BA000012BA0D1B4F8883043F0020332E0B3F542
:101BB000006F4DD017D8B3F5A06F31D0A3F5C06337
:101BC000012B90D86368204694F882205E6894F8D0
:101BD0008310B4F88430B047002884D0436863672A
:101BE0000368A3671AE0B3F5106F36D040F60242DF
:101BF00093427FF478AF5C4B63670223A3670023B3
:101C0000C3E794F88230012B7FF46DAFB4F88830CD
:101C100023F00203A4F88830C4E91D55E56778E78E
:101C2000B4F88030B3F5A06F0ED194F8823020461E
:101C300084F88A3001F0DAF863681B6813B1012177
:101C400020469847032323700023C4E91D339CE7F3
:101C500004F18B0363670123C3E72378042B10D1BE
:101C6000202383F311882046FFF7BEFE85F31188F9
:101C70000321636884F88B5021701B680BB12046E8
:101C8000984794F88230002BDED084F88B30042300
:101C9000237063681B68002BD6D00221204698472A
:101CA000D2E794F8843020461D0603F00F010AD5D0
:101CB00001F04CF9012804D002287FF414AF2B4B1B
:101CC0009AE72B4B98E701F033F9F3E794F8823069
:101CD000002B7FF408AF94F8843013F00F01B3D0D9
:101CE0001A06204602D501F00DFCADE701F0FEFB1F
:101CF000AAE794F88230002B7FF4F5AE94F8843094
:101D000013F00F01A0D01B06204602D501F0E2FB24
:101D10009AE701F0D3FB97E7142284F8702083F34D
:101D200011882B462A4629462046FFF76DFE85F38B
:101D30001188E9E65DB1152284F8702083F31188DB
:101D400000212046D4E91D23FFF75EFEFDE60B22AD
:101D500084F8702083F311882B462A4629462046B2
:101D6000FFF764FEE3E700BFF8400008F04000081A
:101D7000F440000838B590F870300446002B3ED08F
:101D8000063BDAB20F2A34D80F2B32D8DFE803F043
:101D90003731310822323131313131313131373758
:101DA000856FB0F886309D4214D2C3681B8AB5FB9C
:101DB000F3F203FB12556DB9202383F311882B46F0
:101DC0002A462946FFF732FE85F311880A2384F854
:101DD00070300EE0142384F87030202383F31188D0
:101DE000002320461A461946FFF70EFE002383F310
:101DF000118838BDC36F03B198470023E7E700217E
:101E0000204601F067FB0021204601F057FB636884
:101E10001B6813B10621204698470623D7E7000028
:101E200010B590F870300446142B29D017D8062B23
:101E300005D001D81BB110BD093B022BFBD80021F6
:101E4000204601F047FB0021204601F037FB636884
:101E50001B6813B1062120469847062319E0152B6D
:101E6000E9D10B2380F87030202383F311880023FD
:101E70001A461946FFF7DAFD002383F31188DAE7E3
:101E8000C3689B695B68002BD5D1C36F03B19847CA
:101E9000002384F87030CEE7024B0022C3E9003300
:101EA0009A60704740280020002382680374054B25
:101EB0001B6899689142FBD25A68036042601060C7
:101EC000586070474028002008B5202383F311880C
:101ED000037C032B05D0042B0DD02BB983F3118881
:101EE00008BD436900221A604FF0FF334361FFF7DA
:101EF000DBFF0023F2E7D0E9003213605A60F3E71A
:101F0000002382680374054B1B6899689142FBD8D3
:101F10005A68036042601060586070474028002093
:101F2000054B196908741868026853601A601861D3
:101F300001230374FEF74ABA402800204B1C30B539
:101F4000044687B00A4D10D02B6901A8094A00F059
:101F500025F92046FFF7E4FF049B13B101A800F028
:101F600059F92B69586907B030BDFFF7D9FFF8E779
:101F700040280020C91E000838B50C4D04464161B8
:101F80002B6981689A68914203D8BDE83840FFF711
:101F90008BBF1846FFF7B4FF01232C610146237461
:101FA0002046BDE83840FEF711BA00BF40280020A7
:101FB000044B1A681B6990689B68984294BF002084
:101FC000012070474028002010B5084C2368206984
:101FD0001A6854602260012223611A74FFF790FF8F
:101FE00001462069BDE81040FEF7F0B94028002006
:101FF00008B5FFF7DDFF18B1BDE80840FFF7E4BF03
:1020000008BD0000FFF7E0BFFEE7000010B50C4C74
:10201000FFF742FF00F0B4F880220A49204600F0A2
:102020003BF8012344F8180C037400F097FC0023DC
:1020300083F3118862B60448BDE8104000F04CB844
:1020400068280020FC4000080C41000800F01CB982
:10205000EFF3118020B9EFF30583202282F311887A
:102060007047000010B530B9EFF30584C4F30804DD
:1020700014B180F3118810BDFFF7BAFF84F3118803
:10208000F9E70000034A516853685B1A9842FBD88D
:10209000704700BF001000E0826002220282704799
:1020A0008368A3F17C0243F80C2C026943F83C2CB2
:1020B000426943F8382C074A43F81C2CC268A3F144
:1020C000180043F8102C022203F8082C002203F811
:1020D000072C7047E503000810B5202383F311880F
:1020E000FFF7DEFF00210446FFF746FF002383F3DE
:1020F0001188204610BD0000024B1B6958610F205B
:10210000FFF70EBF40280020202383F31188FFF73C
:10211000F3BF000008B50146202383F3118808208F
:10212000FFF70CFF002383F3118808BD49B1064B6C
:1021300042681B6918605A60136043600420FFF70F
:10214000FDBE4FF0FF3070474028002003689842E2
:1021500006D01A680260506018465961FFF7A4BEA5
:102160007047000038B504460D462068844200D10F
:1021700038BD036823605C604561FFF795FEF4E7B6
:10218000054B4FF0FF3103F11402C3E90522002291
:10219000C3E90712704700BF4028002070B51C4EED
:1021A00005460C46C0E9032301F0ACFB334653F867
:1021B000142F9A420DD130620A2C2CBF00190A301C
:1021C0002A60C5E90124C6E90555BDE8704001F063
:1021D00087BB316A431AE31838BF1C469368A34291
:1021E00002D9081901F08AFB73699A6894420CD8E5
:1021F0005A68AC602B606A6015609A685D60121B5B
:102200009A604FF0FF33F36170BDA41A1B68ECE7CE
:102210004028002038B51B4C636998420DD0816876
:10222000D0E9003213605A600022C2609A680A4402
:102230009A604FF0FF33E36138BD03682246002106
:1022400042F8143F93425A60C16003D1BDE8384060
:1022500001F04EBB9A688168256A0A449A6001F0D1
:1022600051FB6369411B9A688A42E5D9AB181D1A74
:10227000206A092D98BF01F10A02BDE838401044D8
:1022800001F03CBB402800202DE9F041184C00270C
:1022900004F11406656901F035FB236AAA68C11AC6
:1022A0008A4215D81344D5F80C802362D5E9003250
:1022B00013605A606369EF60B34201D101F018FB0B
:1022C00087F311882869C047202383F31188E1E749
:1022D0006169B14209D013441B1ABDE8F0410A2BD1
:1022E0002CBFC0180A3001F009BBBDE8F08100BF67
:1022F0004028002000207047FEE7000070470000E3
:102300004FF0FF307047000002290CD0032904D0A1
:102310000129074818BF00207047032A05D805483F
:1023200000EBC2007047044870470020704700BFB0
:10233000F041000844220020A441000870B59AB082
:1023400005460846144601A900F0C2F801A8FEF7A8
:1023500097FD431C0022C6B25B001046C5E900345D
:1023600023700323023404F8013C01ABD1B20234E0
:102370008E4201D81AB070BD13F8011B013204F867
:10238000010C04F8021CF1E708B5202383F311883F
:102390000348FFF767FA002383F3118808BD00BFE5
:1023A000F829002090F8803003F01F02012A07D19D
:1023B00090F881200B2A03D10023C0E91D3315E0DA
:1023C00003F06003202B08D1B0F884302BB990F8CB
:1023D0008120212A03D81F2A04D8FFF725BA222AF0
:1023E000EBD0FAE7034A426707228267C3670120FE
:1023F000704700BF3B22002007B5052917D8DFE84A
:1024000001F0191603191920202383F31188104AAB
:1024100001210190FFF7CEFA019802210D4AFFF742
:10242000C9FA0D48FFF7EAF9002383F3118803B0D6
:102430005DF804FB202383F311880748FFF7B4F904
:10244000F2E7202383F311880348FFF7CBF9EBE78A
:102450004441000868410008F829002038B50C4DB7
:102460000C4C2A460C4904F10800FFF767FF05F100
:10247000CA0204F110000949FFF760FF05F5CA72AE
:1024800004F118000649BDE83840FFF757BF00BF08
:10249000D042002044220020244100082E410008A0
:1024A0003941000870B5044608460D46FEF7E8FCC1
:1024B000C6B22046013403780BB9184670BD3246C7
:1024C0002946FEF7C9FC0028F3D10120F6E70000F9
:1024D0002DE9F84F05460C46FEF7D2FC2B49C6B253
:1024E0002846FFF7DFFF2A492846FFF7DBFF08B140
:1024F0001036F6B2632E0DD8DFF89080DFF890909A
:10250000244FDFF898A0DFF898B02E7846B92670EF
:10251000BDE8F88F29462046BDE8F84F01F096BD8A
:10252000252E2ED1072241462846FEF795FC70B98C
:10253000DBF800300735073444F8073CBBF80430BB
:1025400024F8033C9BF8063004F8013CDDE7082240
:1025500049462846FEF780FC98B9A21C0E4B197814
:1025600002320909C95D02F8041C13F8011B01F0CD
:102570000F015345C95D02F8031CF0D1183408352A
:10258000C3E7013504F8016BBFE700BF1042000844
:10259000394100082042000800E8F11F0CE8F11F53
:1025A00018420008BFF34F8F044B1A695107FCD142
:1025B000D3F810215207F8D1704700BF0020005215
:1025C00008B50D4B1B78ABB9FFF7ECFF0B4BDA6886
:1025D000D10704D50A4A5A6002F188325A60D3F80A
:1025E0000C21D20706D5064AC3F8042102F188322D
:1025F000C3F8042108BD00BF2E4500200020005272
:102600002301674508B5114B1B78F3B9104B1A69C4
:10261000510703D5DA6842F04002DA60D3F810219E
:10262000520705D5D3F80C2142F04002C3F80C2123
:10263000FFF7B8FF064BDA6842F00102DA60D3F820
:102640000C2142F00102C3F80C2108BD2E450020E8
:10265000002000520F289ABF00F58060400400203F
:10266000704700004FF400307047000010207047A2
:102670000F2808B50BD8FFF7EDFF00F5003302680F
:10268000013204D104308342F9D1012008BD002079
:10269000FCE700000F2870B5054645D8FFF7D8FCC9
:1026A000224CFFF77FFF0646FFF78AFF4FF0FF330C
:1026B000072D6361C4F8143120D82361FFF772FF3E
:1026C0002B0243F02403E360E36843F08003E360FC
:1026D00023695A07FCD42846FFF764FF4FF4003102
:1026E000FFF7B8FF00F002F93046FFF78BFFFFF766
:1026F000B9FC2846BDE87040FFF7BABFC4F81031F6
:10270000FFF750FFA5F108031B0243F02403C4F8B0
:102710000C31D4F80C3143F08003C4F80C31D4F8F8
:1027200010315B07FBD4D6E7002070BD00200052BB
:102730002DE9F84F40EA020305460C461746D80635
:1027400002D00020BDE8F88F27F01F07DFF8D4B0D3
:10275000FFF736FF2744BC4203D10120FFF752FFA9
:10276000F0E720222946204601F060FC10B9203510
:102770002034F0E72B4605F120021E68711CE0D1E1
:1027800004339A42F9D1FFF763FC05F17843234AF9
:10279000B3F5801F224B28BF9A4603F1040338BFCC
:1027A0009046A2F1080228BF9846A3F108033ABF59
:1027B0009146DA469946FFF7F5FEC8F80060A5EBAA
:1027C000040CD9F8002004F11C0142F00202C9F8FF
:1027D0000020221FDAF8006016F00506FAD152F840
:1027E000043F8A424CF80230F4D1BFF34F8FFFF719
:1027F000D9FE4FF0FF32C8F80020D9F8002022F0AF
:102800000202C9F80020FFF72DFC202221462846AD
:1028100001F00CFC0028AAD030469FE7142000529B
:10282000102100521020005210B5084C237828B116
:102830001BB9FFF7C5FE0123237010BD002BFCD090
:102840002070BDE81040FFF7DDBE00BF2E45002020
:102850000244074BD2B210B5904200D110BD441CC7
:1028600000B253F8200041F8040BE0B2F4E700BFD7
:10287000504000580E4B30B51C6F240405D41C6F1B
:102880001C671C6F44F400441C670A4C0244236814
:10289000D2B243F480732360074B904200D130BD25
:1028A000441C51F8045B00B243F82050E0B2F4E756
:1028B00000440258004802585040005807B5012211
:1028C00001A90020FFF7C4FF019803B05DF804FBE5
:1028D00013B50446FFF7F2FFA04205D0012201A97B
:1028E00000200194FFF7C6FF02B010BD0144BFF302
:1028F0004F8F064B884204D3BFF34F8FBFF36F8FC8
:102900007047C3F85C022030F4E700BF00ED00E040
:10291000034B1A681AB9034AD2F8D0241A607047D8
:10292000304500200040025808B5FFF7F1FF024B88
:102930001868C0F3806008BD30450020EFF30983BC
:10294000054968334A6B22F001024A6383F3098820
:10295000002383F31188704700EF00E0202080F30C
:10296000118862B60D4B0E4AD96821F4E061090462
:10297000090C0A430B49DA60D3F8FC2042F080725C
:10298000C3F8FC20084AC2F8B01F116841F00101E9
:1029900011601022DA7783F82200704700ED00E022
:1029A0000003FA0555CEACC5001000E0202310B599
:1029B00083F311880E4B5B6813F4006314D0F1EEBF
:1029C000103AEFF309844FF08073683CE361094BE0
:1029D000DB6B236684F30988FFF7EAFA10B1064B34
:1029E000A36110BD054BFBE783F31188F9E700BF36
:1029F00000ED00E000EF00E0F7030008FA03000834
:102A000070B5BFF34F8FBFF36F8F1A4A0021C2F822
:102A10005012BFF34F8FBFF36F8F536943F40033EE
:102A20005361BFF34F8FBFF36F8FC2F88410BFF3B2
:102A30004F8FD2F8803043F6E074C3F3C900C3F37C
:102A40004E335B0103EA0406014646EA817501390B
:102A5000C2F86052F9D2203B13F1200FF2D1BFF33C
:102A60004F8F536943F480335361BFF34F8FBFF3EC
:102A70006F8F70BD00ED00E0FEE700000A4B0B48D1
:102A80000B4A90420BD30B4BC11EDA1C121A22F0D8
:102A900003028B4238BF00220021FEF7F9B953F838
:102AA000041B40F8041BECE70C440008044700201A
:102AB00004470020044700207047000070B5D0E9AB
:102AC000244300224FF0FF359E6804EB421351016E
:102AD000D3F80009002805DAD3F8000940F0804057
:102AE000C3F80009D3F8000B002805DAD3F8000B6F
:102AF00040F08040C3F8000B013263189642C3F8DF
:102B00000859C3F8085BE0D24FF00113C4F81C3831
:102B100070BD000000EB8103D3F80CC02DE9F04339
:102B2000DCF814204E1CD0F89050D2F800E005EBF1
:102B3000063605EB4118506870450AD30122D5F8D6
:102B4000343802FA01F123EA0101C5F83418BDE86E
:102B5000F083AEEB0003BCF81040A34228BF23462D
:102B6000D8F81849A4B2B3EB840FF0D89468A4F154
:102B7000040959F8047F3760A4EB09071F44042FA8
:102B8000F7D81C44034494605360D4E7890141F0B2
:102B90002001016103699B06FCD41220FFF772BA81
:102BA00010B50A4C2046FEF7E3FE094BC4F89030FE
:102BB000084BC4F89430084C2046FEF7D9FE074B6A
:102BC000C4F89030064BC4F8943010BD3445002052
:102BD0000000084058420008D04500200000044092
:102BE0006442000870B503780546012B5DD1494B5E
:102BF000D0F89040984259D1474B0E216520D3F828
:102C0000D82042F00062C3F8D820D3F8002142F067
:102C10000062C3F80021D3F80021D3F8802042F0ED
:102C20000062C3F88020D3F8802022F00062C3F84D
:102C30008020D3F8803000F071FC384BE360384BD3
:102C4000C4F800380023D5F89060C4F8003EC023D3
:102C500023604FF40413A3633369002BFCDA0123D0
:102C60000C203361FFF70EFA3369DB07FCD4122026
:102C7000FFF708FA3369002BFCDA00262846A66025
:102C8000FFF71CFF6B68C4F81068DB68C4F81468B1
:102C9000C4F81C68002B3AD1224BA3614FF0FF33DC
:102CA0006361A36843F00103A36070BD1E4B9842AB
:102CB000C8D1194B0E214D20D3F8D82042F0007214
:102CC000C3F8D820D3F8002142F00072C3F80021E5
:102CD000D3F80021D3F8802042F00072C3F880209E
:102CE000D3F8802022F00072C3F88020D3F880202F
:102CF000D3F8D82022F08062C3F8D820D3F800217E
:102D000022F08062C3F80021D3F8003193E7074B2B
:102D1000C3E700BF3445002000440258401400407F
:102D200003002002003C30C0D0450020083C30C0E9
:102D3000F8B5D0F89040054600214FF000662046D7
:102D4000FFF724FFD5F8941000234FF001128F688D
:102D50004FF0FF30C4F83438C4F81C2804EB431299
:102D600001339F42C2F80069C2F8006BC2F808093B
:102D7000C2F8080BF2D20B68D5F89020C5F898304D
:102D8000636210231361166916F01006FBD112203E
:102D9000FFF778F9D4F8003823F4FE63C4F800385C
:102DA000A36943F4402343F01003A3610923C4F84B
:102DB0001038C4F814380B4BEB604FF0C043C4F824
:102DC000103B094BC4F8003BC4F81069C4F8003943
:102DD000D5F8983003F1100243F48013C5F8982019
:102DE000A362F8BD3442000840800010D0F8902063
:102DF00090F88A10D2F8003823F4FE6343EA0113F6
:102E0000C2F80038704700002DE9F84300EB810359
:102E1000D0F890500C468046DA680FFA81F94801E4
:102E2000166806F00306731E022B05EB41134FF0E4
:102E3000000194BFB604384EC3F8101B4FF00101D7
:102E400004F1100398BF06F1805601FA03F391696B
:102E500098BF06F5004600293AD0578A04F1580178
:102E6000374349016F50D5F81C180B430021C5F8B2
:102E70001C382B180127C3F81019A7405369611E8D
:102E80009BB3138A928B9B08012A88BF5343D8F8BF
:102E90009820981842EA034301F140022146C8F8FD
:102EA0009800284605EB82025360FFF76FFE08EB9F
:102EB0008900C3681B8A43EA845348341E43640173
:102EC0002E51D5F81C381F43C5F81C78BDE8F8838F
:102ED00005EB4917D7F8001B21F40041C7F8001B88
:102EE000D5F81C1821EA0303C0E704F13F030B4A9D
:102EF0002846214605EB83035A60FFF747FE05EBA2
:102F00004910D0F8003923F40043C0F80039D5F84F
:102F10001C3823EA0707D7E70080001000040002EE
:102F2000D0F894201268C0F89820FFF7C7BD0000C1
:102F30005831D0F8903049015B5813F4004004D068
:102F400013F4001F0CBF0220012070474831D0F855
:102F5000903049015B5813F4004004D013F4001F73
:102F60000CBF02200120704700EB8101CB68196A79
:102F70000B6813604B6853607047000000EB8103DF
:102F800030B5DD68AA691368D36019B9402B84BFD6
:102F9000402313606B8A1468D0F890201C4402EB25
:102FA0004110013C09B2B4FBF3F46343033323F053
:102FB000030343EAC44343F0C043C0F8103B2B680B
:102FC00003F00303012B0ED1D2F8083802EB4110B5
:102FD00013F4807FD0F8003B14BF43F0805343F0DC
:102FE0000053C0F8003B02EB4112D2F8003B43F023
:102FF0000443C2F8003B30BD2DE9F041D0F89060A9
:1030000005460C4606EB4113D3F8087B3A07C3F894
:10301000087B08D5D6F814381B0704D500EB8103CC
:10302000DB685B689847FA071FD5D6F81438DB07CA
:103030001BD505EB8403D968CCB98B69488A5A68DB
:10304000B2FBF0F600FB16228AB91868DA689042E3
:103050000DD2121AC3E90024202383F311882146DC
:103060002846FFF78BFF84F31188BDE8F081012328
:1030700003FA04F26B8923EA02036B81CB68002B0D
:10308000F3D021462846BDE8F041184700EB810304
:103090004A0170B5DD68D0F890306C692668E6604A
:1030A00056BB1A444FF40020C2F810092A6802F0F7
:1030B0000302012A0AB20ED1D3F8080803EB421426
:1030C00010F4807FD4F8000914BF40F0805040F025
:1030D0000050C4F8000903EB4212D2F8000940F096
:1030E0000440C2F800090122D3F8340802FA01F1C1
:1030F0000143C3F8341870BD19B9402E84BF402075
:10310000206020681A442E8A8419013CB4FBF6F42E
:1031100040EAC44040F00050C6E700002DE9F0410D
:10312000D0F8906004460D4606EB4113D3F80879B9
:10313000C3F80879FB071CD5D6F81038DA0718D57C
:1031400000EB8103D3F80CC0DCF81430D3F800E0B6
:10315000DA6896451BD2A2EB0E024FF000081A6007
:10316000C3F80480202383F31188FFF78FFF88F3CF
:1031700011883B0618D50123D6F83428AB401342FA
:1031800012D029462046BDE8F041FFF7C3BC012319
:1031900003FA01F2038923EA02030381DCF8083011
:1031A000002BE6D09847E4E7BDE8F0812DE9F84F21
:1031B000D0F8905004466E69AB691E4016F48058F2
:1031C0006E6103D0BDE8F84FFEF742BC002E12DA64
:1031D000D5F8003E9F0705D0D5F8003E23F0030345
:1031E000C5F8003ED5F80438204623F00103C5F8A1
:1031F0000438FEF759FC300505D52046FFF75EFC84
:103200002046FEF741FCB1040CD5D5F8083813F080
:10321000060FEB6823F470530CBF43F4105343F4D0
:10322000A053EB60320704D56368DB680BB120461E
:103230009847F30200F1BA80B70226D5D4F89090EF
:1032400000274FF0010A09EB4712D2F8003B03F4C4
:103250004023B3F5802F11D1D2F8003B002B0DDABB
:1032600062890AFA07F322EA0303638104EB870306
:10327000DB68DB6813B13946204698470137D4F83C
:103280009430FFB29B689F42DDD9F00619D5D4F87F
:103290009000026AC2F30A1702F00F0302F4F01260
:1032A000B2F5802F00F0CC80B2F5402F09D104EBAD
:1032B0008303002200F58050DB681B6A974240F0D0
:1032C000B2803003D5F8185835D5E90303D500216D
:1032D0002046FFF791FEAA0303D501212046FFF700
:1032E0008BFE6B0303D502212046FFF785FE2F03DB
:1032F00003D503212046FFF77FFEE80203D5042112
:103300002046FFF779FEA90203D505212046FFF7E5
:1033100073FE6A0203D506212046FFF76DFE2B02DD
:1033200003D507212046FFF767FEEF0103D50821EB
:103330002046FFF761FE700340F1A980E90703D53D
:1033400000212046FFF7EAFEAA0703D50121204607
:10335000FFF7E4FE6B0703D502212046FFF7DEFEF0
:103360002F0703D503212046FFF7D8FEEE0603D52D
:1033700004212046FFF7D2FEA80603D505212046EA
:10338000FFF7CCFE690603D506212046FFF7C6FEEF
:103390002A0603D507212046FFF7C0FEEB0576D5A8
:1033A00020460821BDE8F84FFFF7B8BED4F890904A
:1033B00000274FF0010AD4F894305FFA87FB9B682E
:1033C0009B453FF639AF09EB4B13D3F8002902F4C4
:1033D0004022B2F5802F24D1D3F80029002A20DA28
:1033E000D3F8002942F09042C3F80029D3F800290D
:1033F000002AFBDB5946D4F89000FFF7C7FB22896F
:103400000AFA0BF322EA0303238104EB8B03DB6844
:103410009B6813B159462046984759462046FFF706
:1034200079FB0137C7E7910701D1D0F80080072A5F
:1034300002F101029CBF03F8018B4FEA18283DE717
:1034400004EB830300F58050DA68D2F818C0DCF88A
:103450000820DCE9001CA1EB0C0C00218F4208D1F4
:10346000DB689B699A683A449A605A683A445A60A1
:1034700027E711F0030F01D1D0F800808C4501F14E
:10348000010184BF02F8018B4FEA1828E6E7BDE886
:10349000F88F000008B50348FFF788FEBDE8084034
:1034A000FFF784BA3445002008B50348FFF77EFED5
:1034B000BDE80840FFF77ABAD0450020D0F8903038
:1034C00003EB4111D1F8003B43F40013C1F8003B7A
:1034D00070470000D0F8903003EB4111D1F800396B
:1034E00043F40013C1F8003970470000D0F8903061
:1034F00003EB4111D1F8003B23F40013C1F8003B6A
:1035000070470000D0F8903003EB4111D1F800393A
:1035100023F40013C1F8003970470000090100F1DD
:103520006043012203F56143C9B283F8001300F040
:103530001F039A4043099B0003F1604303F5614375
:10354000C3F880211A60704730B50433039C0172C0
:10355000002104FB0325C160C0E90653049B0363FB
:10356000059BC0E90000C0E90422C0E90842C0E9A7
:103570000A11436330BD00000022416AC260C0E905
:103580000411C0E90A226FF00101FEF7EBBD000053
:10359000D0E90432934201D1C2680AB9181D7047BC
:1035A00000207047036919600021C2680132C260BF
:1035B000C269134482699342036124BF436A036171
:1035C000FEF7C4BD38B504460D46E3683BB16269F9
:1035D0000020131D1268A3621344E36207E0237AFC
:1035E00033B929462046FEF7A1FD0028EDDA38BDA3
:1035F0006FF00100FBE70000C368C269013BC360D4
:103600004369134482699342436124BF436A43611F
:1036100000238362036B03B11847704770B5202302
:10362000044683F31188866A3EB9FFF7CBFF05464F
:1036300018B186F31188284670BDA36AE26A13F8B0
:10364000015B9342A36202D32046FFF7D5FF00231C
:1036500083F31188EFE700002DE9F84F04460E468A
:10366000174698464FF0200989F311880025AA468D
:10367000D4F828B0BBF1000F09D141462046FFF72E
:10368000A1FF20B18BF311882846BDE8F88FD4E95B
:103690000A12A7EB050B521A934528BF9346BBF1BC
:1036A000400F1BD9334601F1400251F8040B9142FF
:1036B00043F8040BF9D1A36A403640354033A36286
:1036C000D4E90A239A4202D32046FFF795FF8AF3F2
:1036D0001188BD42D8D289F31188C9E730465A46CD
:1036E000FDF7B0FBA36A5E445D445B44A362E7E779
:1036F00010B5029C0433017204FB0321C460C0E9CD
:1037000006130023C0E90A33039B0363049BC0E94B
:103710000000C0E90422C0E90842436310BD000074
:10372000026A6FF00101C260426AC0E9042200220D
:10373000C0E90A22FEF716BDD0E904239A4201D15E
:10374000C26822B9184650F8043B0B60704700204D
:1037500070470000C3680021C2690133C360436938
:10376000134482699342436124BF436A4361FEF775
:10377000EDBC000038B504460D46E3683BB1236953
:1037800000201A1DA262E2691344E36207E0237A73
:1037900033B929462046FEF7C9FC0028EDDA38BDCA
:1037A0006FF00100FBE7000003691960C268013A8D
:1037B000C260C269134482699342036124BF436AB1
:1037C000036100238362036B03B118477047000055
:1037D00070B520230D460446114683F31188866A8E
:1037E0002EB9FFF7C7FF10B186F3118870BDA36A29
:1037F0001D70A36AE26A01339342A36204D3E169B4
:1038000020460439FFF7D0FF002080F31188EDE750
:103810002DE9F84F04460D46904699464FF0200A90
:103820008AF311880026B346A76A4FB94946204655
:10383000FFF7A0FF20B187F311883046BDE8F88F6D
:10384000D4E90A073A1AA8EB0607974228BF174699
:10385000402F1BD905F1400355F8042B9D4240F839
:10386000042BF9D1A36A40364033A362D4E90A237A
:103870009A4204D3E16920460439FFF795FF8BF3A0
:1038800011884645D9D28AF31188CDE729463A46B0
:10389000FDF7D8FAA36A3D443E443B44A362E5E702
:1038A000D0E904239A4217D1C3689BB1836A8BB1D4
:1038B000043B9B1A0ED01360C368013BC360C3690D
:1038C0001A4483699A42026124BF436A0361002358
:1038D00083620123184670470023FBE700F0D4B849
:1038E0004FF08043002258631A610222DA60704769
:1038F0004FF080430022DA60704700004FF08043B1
:10390000586370474FF08043586A70474B68436074
:103910008B688360CB68C3600B6943614B6903624A
:103920008B6943620B6803607047000008B53C4B2D
:1039300040F2FF713B48D3F888200A43C3F888203F
:10394000D3F8882022F4FF6222F00702C3F888200F
:10395000D3F88820D3F8E0200A43C3F8E020D3F856
:1039600008210A43C3F808212F4AD3F80831114629
:10397000FFF7CCFF00F5806002F11C01FFF7C6FFE6
:1039800000F5806002F13801FFF7C0FF00F58060AC
:1039900002F15401FFF7BAFF00F5806002F17001F7
:1039A000FFF7B4FF00F5806002F18C01FFF7AEFF76
:1039B00000F5806002F1A801FFF7A8FF00F5806024
:1039C00002F1C401FFF7A2FF00F5806002F1E001FF
:1039D000FFF79CFF00F5806002F1FC01FFF796FF06
:1039E00002F58C7100F58060FFF790FF00F002F99E
:1039F0000E4BD3F8902242F00102C3F89022D3F884
:103A0000942242F00102C3F894220522C3F89820C0
:103A10004FF06052C3F89C20054AC3F8A02008BDAF
:103A200000440258000002587042000800ED00E017
:103A30001F00080308B500F0D9FAFEF7E7FA0F4BAC
:103A4000D3F8DC2042F04002C3F8DC20D3F8042194
:103A500022F04002C3F80421D3F80431084B1A685D
:103A600042F008021A601A6842F004021A60FEF777
:103A70004FFFBDE80840FEF7F1BC00BF004402580C
:103A80000018024870470000114BD3F8E82042F0BC
:103A90000102C3F8E820D3F8102142F00102C3F874
:103AA00010210C4AD3F81031D36B43F00103D363D8
:103AB0004FF08043C7229A624FF0FF32DA62002251
:103AC0009A615A63DA605A6001225A611A6070473B
:103AD000004402580010005C4FF0804208B51169A4
:103AE000D3680B40D9B29B076FEA0101116107D57A
:103AF000202383F31188FEF7A9FA002383F31188AA
:103B000008BD00003A4B4FF0FF31D3F8802062F03F
:103B10000042C3F88020D3F8802002F00042C3F8AE
:103B20008020D3F88020D3F88420C3F88410D3F801
:103B300084200022C3F88420D3F88400D86F40F09A
:103B4000FF4040F4FF0040F43F5040F03F00D86792
:103B5000D86F20F0FF4020F4FF0020F43F5020F009
:103B60003F00D867D86FD3F888006FEA40506FEAFB
:103B70005050C3F88800D3F88800C0F30A00C3F897
:103B80008800D3F88800D3F89000C3F89010D3F8D9
:103B90009000C3F89020D3F89000D3F89400C3F8B5
:103BA0009410D3F89400C3F89420D3F89400D3F879
:103BB0009800C3F89810D3F89800C3F89820D3F869
:103BC0009800D3F88C00C3F88C10D3F88C00C3F89D
:103BD0008C20D3F88C00D3F89C00C3F89C10D3F849
:103BE0009C10C3F89C20D3F89C3000F0D3B900BFE0
:103BF00000440258614B0122C3F80821604BD3F8FE
:103C0000F42042F00202C3F8F420D3F81C2142F061
:103C10000202C3F81C210222D3F81C31594BDA608E
:103C20005A689104FCD5584A1A6001229A60574A92
:103C3000DA6000221A614FF440429A61514B9A694E
:103C40009204FCD51A6842F480721A604C4B1A6FC9
:103C500012F4407F04D04FF480321A6700221A67B2
:103C60001A6842F001021A60454B1A685007FCD5E9
:103C700000221A611A6912F03802FBD10121196081
:103C80004FF0804159605A67414ADA62414A1A61ED
:103C90001A6842F480321A60394B1A689103FCD5D5
:103CA0001A6842F480521A601A689204FCD53A4AA3
:103CB0003A499A6200225A6319633949DA6399636F
:103CC0005A64384A1A64384ADA621A6842F0A852CA
:103CD0001A602B4B1A6802F02852B2F1285FF9D112
:103CE00048229A614FF48862DA6140221A622F4AB0
:103CF000DA644FF080521A652D4A5A652D4A9A654A
:103D000032232D4A1360136803F00F03022BFAD1FC
:103D10001B4B1A6942F003021A611A6902F0380259
:103D2000182AFAD1D3F8DC2042F00052C3F8DC2084
:103D3000D3F8042142F00052C3F80421D3F804213F
:103D4000D3F8DC2042F08042C3F8DC20D3F8042111
:103D500042F08042C3F80421D3F80421D3F8DC20D8
:103D600042F00042C3F8DC20D3F8042142F00042C4
:103D7000C3F80421D3F80431704700BF008000511C
:103D8000004402580048025800C000F00200000140
:103D90000000FF0100889008222040006302090112
:103DA0002C02040047040508FD0BFF012000002041
:103DB0000010E00000010100002000524FF0B0426E
:103DC00008B5D2F8883003F00103C2F8883023B177
:103DD000044A13680BB150689847BDE80840FEF7E5
:103DE000E5BD00BF844600204FF0B04208B5D2F8D0
:103DF000883003F00203C2F8883023B1044A936884
:103E00000BB1D0689847BDE80840FEF7CFBD00BFB2
:103E1000844600204FF0B04208B5D2F8883003F055
:103E20000403C2F8883023B1044A13690BB1506906
:103E30009847BDE80840FEF7B9BD00BF84460020A2
:103E40004FF0B04208B5D2F8883003F00803C2F84A
:103E5000883023B1044A93690BB1D0699847BDE813
:103E60000840FEF7A3BD00BF844600204FF0B042DB
:103E700008B5D2F8883003F01003C2F8883023B1B7
:103E8000044A136A0BB1506A9847BDE80840FEF730
:103E90008DBD00BF844600204FF0B04310B5D3F86D
:103EA000884004F47872C3F88820A30604D5124A27
:103EB000936A0BB1D06A9847600604D50E4A136B1B
:103EC0000BB1506B9847210604D50B4A936B0BB18D
:103ED000D06B9847E20504D5074A136C0BB1506CC0
:103EE0009847A30504D5044A936C0BB1D06C98474E
:103EF000BDE81040FEF75ABD844600204FF0B043A5
:103F000010B5D3F8884004F47C42C3F888206205D9
:103F100004D5164A136D0BB1506D9847230504D58F
:103F2000124A936D0BB1D06D9847E00404D50F4A47
:103F3000136E0BB1506E9847A10404D50B4A936ED3
:103F40000BB1D06E9847620404D5084A136F0BB1C9
:103F5000506F9847230404D5044A936F0BB1D06F78
:103F60009847BDE81040FEF721BD00BF8446002001
:103F700008B50348FDF70EF9BDE80840FEF716BD89
:103F8000D423002008B5FFF7A7FDBDE80840FEF7E1
:103F90000DBD0000062108B50846FFF7BFFA06214F
:103FA0000720FFF7BBFA06210820FFF7B7FA062122
:103FB0000920FFF7B3FA06210A20FFF7AFFA06211E
:103FC0001720FFF7ABFA06212820FFF7A7FA0921EF
:103FD0007A20FFF7A3FA07211C20FFF79FFA0C2194
:103FE0005220BDE80840FFF799BA000008B5FFF776
:103FF00089FD00F00DF8FDF7DFFAFDF7B7FCFDF7DE
:1040000089FBFFF73FFDBDE80840FFF767BC0000F4
:104010000023054A19460133102BC2E9001102F1B1
:104020000802F8D1704700BF8446002010B501395E
:104030000244904201D1002005E0037811F8014FBD
:10404000A34201D0181B10BD0130F2E7034611F85E
:10405000012B03F8012B002AF9D1704753544D333B
:104060003248373F3F3F0053544D333248373433A3
:104070002F3735330000000001105A00031059009B
:1040800001205800032056000096000000000000A8
:104090000000000000000000000000000000000020
:1040A00000000000811500086D150008A915000822
:1040B00095150008A11500088D1500087915000850
:1040C00065150008B51500080000000091160008ED
:1040D0007D160008B9160008A5160008B1160008DC
:1040E0009D1600088916000875160008C5160008F8
:1040F0000000000001000000000000006D61696E1A
:104100000000000069646C650000000004410008C4
:1041100080280020F8290020010000000920000864
:10412000000000004172647550696C6F7400254294
:104130004F415244252D424C002553455249414C94
:10414000250000000200000000000000B118000877
:104150002119000840004000A0420020B042002089
:10416000020000000000000003000000000000004A
:10417000691900080000000010000000C042002083
:104180000000000001000000000000003445002095
:1041900001010200F923000809230008A5230008F3
:1041A0008923000843000000AC41000809024300D5
:1041B000020100C0320904000001020201000524CE
:1041C0000010010524010001042402020524060058
:1041D00001070582030800FF09040100020A00002C
:1041E00000070501024000000705810240000000B1
:1041F00012000000F8410008120110010200004006
:1042000009124157000201020301000004030904DE
:1042100025424F4152442500435541562D58370001
:1042200030313233343536373839414243444546EC
:104230000000000000000000BD1A0008751D000805
:10424000211E0008400040006C4600206C46002003
:10425000010000007C4600208000000040010000BA
:104260000800000000010000000400000800000039
:104270004000802A00000000AAAAAAAA4000002448
:10428000FFFF00000000000000A00A000000000086
:1042900000000000AAAAAAAA00000000FFFF000078
:1042A000000000000000000000000000000000000E
:1042B000AAAAAAAA00000000FFFF00000000000058
:1042C000000000000000000000000000AAAAAAAA46
:1042D00000000000FFFF00000000000000000000E0
:1042E0000080124100000000AAAAAAAA00401141C1
:1042F000FFFF000000000070070000000400000045
:1043000000000000AAAAAAAA04000000FFFF000003
:10431000000000000000000000001000000000008D
:10432000AAAAAAAA00001000FFFF000000000000D7
:10433000000000000040000000000000AA2AAAAA15
:1043400000400000FFFF000000000000000000002F
:104350000054000000000000AAAAAAAA0000000061
:10436000FFFF00000000000000000000000000004F
:1043700000000000AAAAAAAA00000000FFFF000097
:10438000000000000000000000000000000000002D
:10439000AAAAAAAA00000000FFFF00000000000077
:1043A0000000000000000000F20300000000000018
:1043B00000001E0000000000FF000000F82900209F
:1043C000D4230020000000005C4000083F000000F3
:1043D00050040000674000083F0000000096000005
:1043E0000000080096000000000800000400000023
:1043F0000C42000800000000000000000000000067
:0C440000000000000000000000000000B0
:00000001FF
